:100000000C9452000C9432020C9432020C94320282
:100010000C9432020C9432020C9432020C94320290
:100020000C941F020C9432020C9432020C94320293
:100030000C9432020C9432020C9432020C94320270
:100040000C9432020C9432020C9432020C94320260
:100050000C9432020C9432020C9432020C94320250
:100060000C94B7010C9432020C9432020C943202BC
:100070000C9432020C9424020C9432020C9432023E
:100080000C9432020C9432020C9429020C94320229
:10009000A800B000BA00C400CE00D800E3006000A1
:1000A0006007800011241FBECFEFCDBFDFE7DEBFAA
:1000B000EEE9F0E040E017C0B591A59135912591AA
:1000C000059107FD0CC095918591EF01F92FE82F5F
:1000D00005900D92A217B307D9F7FE0104C01D9237
:1000E000A217B307E1F7E33AF40731F70E947C0067
:0800F0000C940702F894FFCF05
:1000F8000E9412020F2EF2E6EF2EF4E0FF2EF02DF2
:100108006894992493F86894AA24A2F86894BB2464
:10011800B1F8C6E6D4E001E614E00F2EF5E6CF2EDE
:10012800F4E0DF2EF02D84EF91E00E94FC01E091D5
:1001380006608E2F90E08730910508F04BC0FC01D7
:10014800E85BFF4F0C941902F8019082A082B082FC
:100158009882A882B88245C0F7019082F801A082EF
:10016800B0829882F601A082B8823BC0F7019082E3
:10017800F801A082B0829882A882F601B08231C0CC
:10018800F8019082A082F701B082F6019082A882DD
:10019800B88227C0F8019082A082F701B0829882C5
:1001A800F601A082B8821DC0F8019082F701A082F2
:1001B800F801B082F6019082A882B88212C0F801D4
:1001C8009082F701A082F801B0829882A882F60195
:1001D800B08207C0F7019082A082B0829882A8827C
:1001E800B88280910660863011F410920660809182
:0A01F80006608F5F8093066096CFCB
:10020200CF93DF9380E094E0FC011082C0E4D4E05D
:100212001882A0E6B4E01C9220EA34E0F9011082D0
:10022200FC0114821C8214961C921497F901148208
:10023200FC01108A118A128A138A148A158A168A74
:10024200178A188A198A1A8A1B8A1C8A1D8A1E8A88
:100252001F8A50961C92509751961C925197529613
:100262001C92529753961C92539754961C925497F1
:1002720055961C92559756961C92569757961C92D5
:10028200F901108A118A128A138A148A158A168A27
:10029200178AE0EEF5E0118210821582178210862D
:1002A20011861682128286E392E080930460909314
:1002B200056087E392E0809302609093036088E395
:1002C20092E08093006090930160DF91CF91089556
:1002D20040E068ED80E690E00E942E0240E068ED8A
:1002E20081E690E00E942E0240E068ED85E690E013
:1002F2000E942E0240E068ED88E790E00E942E0204
:100302004CE068ED88E690E00E942E0240E068ED45
:1003120089E690E00E942E0240E068ED80E790E0DE
:100322000E942E0240E068ED8CE790E00E942E02CF
:1003320040E068ED82E690E00E942E0240E068ED27
:1003420083E690E00E942E0240E068ED84E690E0B1
:100352000E942E0240E068ED80E890E00E942E02AA
:0C036200E0E6F0E0858181FFFDCF08950A
:10036E001F920F920FB60F9211242F933F934F931C
:10037E005F936F937F938F939F93AF93BF93EF93FF
:10038E00FF93799B05C0E0910460F091056009959B
:10039E007A9B05C0E0910260F091036009957B9B0A
:1003AE0005C0E0910060F091016009958FEF8FB963
:1003BE00FF91EF91BF91AF919F918F917F916F912F
:1003CE005F914F913F912F910F900FBE0F901F9005
:0203DE00189570
:1003E00040E068ED80E191E00E942E02E0E1F1E062
:0803F0001282138280E00895DF
:1003F800009741F0E7EEF3E03197F1F700C0000015
:060408000197C1F7089501
:10040E00EC010E943A020E943902CE010E943B0288
:06041E00CE010E94340231
:0E0424000E9469010E9401010E94F0010895EA
:0C043200EE0FFF1F0590F491E02D0994DF
:0A043E008F938FEF83B98F9118950B
:0A0448008F938FEF8BB98F911895F9
:0A0452008F938FEF87BB8F911895F1
:08045C00FC0164BF4083089518
:040464000C940000F4
:040468000E947A0074
:02046C000895F1
:02046E000895EF
:020470000895ED
:020472000895EB
:020474000895E9
:020476000895E7
:02000004008278
:090000000000000000D00800001F
:00000001FF
